{
  "_format": "hh-sol-artifact-1",
  "contractName": "BiatecTokenPreminted",
  "sourceName": "contracts/BiatecTokenPreminted.sol",
  "abi": [
    {
      "inputs": [
        {
          "internalType": "string",
          "name": "name",
          "type": "string"
        },
        {
          "internalType": "string",
          "name": "symbol",
          "type": "string"
        },
        {
          "internalType": "uint8",
          "name": "decimals_",
          "type": "uint8"
        },
        {
          "internalType": "uint256",
          "name": "initialSupply",
          "type": "uint256"
        },
        {
          "internalType": "address",
          "name": "initialSupplyReceiver",
          "type": "address"
        }
      ],
      "stateMutability": "nonpayable",
      "type": "constructor"
    },
    {
      "inputs": [
        {
          "internalType": "uint256",
          "name": "increasedSupply",
          "type": "uint256"
        },
        {
          "internalType": "uint256",
          "name": "cap",
          "type": "uint256"
        }
      ],
      "name": "ERC20ExceededCap",
      "type": "error"
    },
    {
      "inputs": [
        {
          "internalType": "address",
          "name": "spender",
          "type": "address"
        },
        {
          "internalType": "uint256",
          "name": "allowance",
          "type": "uint256"
        },
        {
          "internalType": "uint256",
          "name": "needed",
          "type": "uint256"
        }
      ],
      "name": "ERC20InsufficientAllowance",
      "type": "error"
    },
    {
      "inputs": [
        {
          "internalType": "address",
          "name": "sender",
          "type": "address"
        },
        {
          "internalType": "uint256",
          "name": "balance",
          "type": "uint256"
        },
        {
          "internalType": "uint256",
          "name": "needed",
          "type": "uint256"
        }
      ],
      "name": "ERC20InsufficientBalance",
      "type": "error"
    },
    {
      "inputs": [
        {
          "internalType": "address",
          "name": "approver",
          "type": "address"
        }
      ],
      "name": "ERC20InvalidApprover",
      "type": "error"
    },
    {
      "inputs": [
        {
          "internalType": "uint256",
          "name": "cap",
          "type": "uint256"
        }
      ],
      "name": "ERC20InvalidCap",
      "type": "error"
    },
    {
      "inputs": [
        {
          "internalType": "address",
          "name": "receiver",
          "type": "address"
        }
      ],
      "name": "ERC20InvalidReceiver",
      "type": "error"
    },
    {
      "inputs": [
        {
          "internalType": "address",
          "name": "sender",
          "type": "address"
        }
      ],
      "name": "ERC20InvalidSender",
      "type": "error"
    },
    {
      "inputs": [
        {
          "internalType": "address",
          "name": "spender",
          "type": "address"
        }
      ],
      "name": "ERC20InvalidSpender",
      "type": "error"
    },
    {
      "anonymous": false,
      "inputs": [
        {
          "indexed": true,
          "internalType": "address",
          "name": "owner",
          "type": "address"
        },
        {
          "indexed": true,
          "internalType": "address",
          "name": "spender",
          "type": "address"
        },
        {
          "indexed": false,
          "internalType": "uint256",
          "name": "value",
          "type": "uint256"
        }
      ],
      "name": "Approval",
      "type": "event"
    },
    {
      "anonymous": false,
      "inputs": [
        {
          "indexed": true,
          "internalType": "address",
          "name": "from",
          "type": "address"
        },
        {
          "indexed": true,
          "internalType": "address",
          "name": "to",
          "type": "address"
        },
        {
          "indexed": false,
          "internalType": "uint256",
          "name": "value",
          "type": "uint256"
        }
      ],
      "name": "Transfer",
      "type": "event"
    },
    {
      "inputs": [
        {
          "internalType": "address",
          "name": "owner",
          "type": "address"
        },
        {
          "internalType": "address",
          "name": "spender",
          "type": "address"
        }
      ],
      "name": "allowance",
      "outputs": [
        {
          "internalType": "uint256",
          "name": "",
          "type": "uint256"
        }
      ],
      "stateMutability": "view",
      "type": "function"
    },
    {
      "inputs": [
        {
          "internalType": "address",
          "name": "spender",
          "type": "address"
        },
        {
          "internalType": "uint256",
          "name": "value",
          "type": "uint256"
        }
      ],
      "name": "approve",
      "outputs": [
        {
          "internalType": "bool",
          "name": "",
          "type": "bool"
        }
      ],
      "stateMutability": "nonpayable",
      "type": "function"
    },
    {
      "inputs": [
        {
          "internalType": "address",
          "name": "account",
          "type": "address"
        }
      ],
      "name": "balanceOf",
      "outputs": [
        {
          "internalType": "uint256",
          "name": "",
          "type": "uint256"
        }
      ],
      "stateMutability": "view",
      "type": "function"
    },
    {
      "inputs": [],
      "name": "cap",
      "outputs": [
        {
          "internalType": "uint256",
          "name": "",
          "type": "uint256"
        }
      ],
      "stateMutability": "view",
      "type": "function"
    },
    {
      "inputs": [],
      "name": "decimals",
      "outputs": [
        {
          "internalType": "uint8",
          "name": "",
          "type": "uint8"
        }
      ],
      "stateMutability": "view",
      "type": "function"
    },
    {
      "inputs": [],
      "name": "name",
      "outputs": [
        {
          "internalType": "string",
          "name": "",
          "type": "string"
        }
      ],
      "stateMutability": "view",
      "type": "function"
    },
    {
      "inputs": [],
      "name": "symbol",
      "outputs": [
        {
          "internalType": "string",
          "name": "",
          "type": "string"
        }
      ],
      "stateMutability": "view",
      "type": "function"
    },
    {
      "inputs": [],
      "name": "totalSupply",
      "outputs": [
        {
          "internalType": "uint256",
          "name": "",
          "type": "uint256"
        }
      ],
      "stateMutability": "view",
      "type": "function"
    },
    {
      "inputs": [
        {
          "internalType": "address",
          "name": "to",
          "type": "address"
        },
        {
          "internalType": "uint256",
          "name": "value",
          "type": "uint256"
        }
      ],
      "name": "transfer",
      "outputs": [
        {
          "internalType": "bool",
          "name": "",
          "type": "bool"
        }
      ],
      "stateMutability": "nonpayable",
      "type": "function"
    },
    {
      "inputs": [
        {
          "internalType": "address",
          "name": "from",
          "type": "address"
        },
        {
          "internalType": "address",
          "name": "to",
          "type": "address"
        },
        {
          "internalType": "uint256",
          "name": "value",
          "type": "uint256"
        }
      ],
      "name": "transferFrom",
      "outputs": [
        {
          "internalType": "bool",
          "name": "",
          "type": "bool"
        }
      ],
      "stateMutability": "nonpayable",
      "type": "function"
    }
  ],
  "bytecode": "0x60a06040523480156200001157600080fd5b5060405162000d9e38038062000d9e83398101604081905262000034916200037c565b8185856003620000458382620004ba565b506004620000548282620004ba565b50505080600003620000815760405163392e1e2760e01b8152600060048201526024015b60405180910390fd5b6080526005805460ff191660ff851617905560006001600160a01b03821615620000ac5781620000ae565b335b9050620000bc8184620000c8565b505050505050620005ae565b6001600160a01b038216620000f45760405163ec442f0560e01b81526000600482015260240162000078565b620001026000838362000106565b5050565b6200011383838362000118565b505050565b6200012583838362000184565b6001600160a01b038316620001135760006200014060805190565b905060006200014e60025490565b9050818111156200017d5760405163279e7e1560e21b8152600481018290526024810183905260440162000078565b5050505050565b6001600160a01b038316620001b3578060026000828254620001a7919062000586565b90915550620002279050565b6001600160a01b03831660009081526020819052604090205481811015620002085760405163391434e360e21b81526001600160a01b0385166004820152602481018290526044810183905260640162000078565b6001600160a01b03841660009081526020819052604090209082900390555b6001600160a01b038216620002455760028054829003905562000264565b6001600160a01b03821660009081526020819052604090208054820190555b816001600160a01b0316836001600160a01b03167fddf252ad1be2c89b69c2b068fc378daa952ba7f163c4a11628f55a4df523b3ef83604051620002aa91815260200190565b60405180910390a3505050565b634e487b7160e01b600052604160045260246000fd5b600082601f830112620002df57600080fd5b81516001600160401b0380821115620002fc57620002fc620002b7565b604051601f8301601f19908116603f01168101908282118183101715620003275762000327620002b7565b816040528381526020925086838588010111156200034457600080fd5b600091505b8382101562000368578582018301518183018401529082019062000349565b600093810190920192909252949350505050565b600080600080600060a086880312156200039557600080fd5b85516001600160401b0380821115620003ad57600080fd5b620003bb89838a01620002cd565b96506020880151915080821115620003d257600080fd5b50620003e188828901620002cd565b945050604086015160ff81168114620003f957600080fd5b6060870151608088015191945092506001600160a01b03811681146200041e57600080fd5b809150509295509295909350565b600181811c908216806200044157607f821691505b6020821081036200046257634e487b7160e01b600052602260045260246000fd5b50919050565b601f8211156200011357600081815260208120601f850160051c81016020861015620004915750805b601f850160051c820191505b81811015620004b2578281556001016200049d565b505050505050565b81516001600160401b03811115620004d657620004d6620002b7565b620004ee81620004e784546200042c565b8462000468565b602080601f8311600181146200052657600084156200050d5750858301515b600019600386901b1c1916600185901b178555620004b2565b600085815260208120601f198616915b82811015620005575788860151825594840194600190910190840162000536565b5085821015620005765787850151600019600388901b60f8161c191681555b5050505050600190811b01905550565b80820180821115620005a857634e487b7160e01b600052601160045260246000fd5b92915050565b6080516107cd620005d160003960008181610120015261049b01526107cd6000f3fe608060405234801561001057600080fd5b506004361061009e5760003560e01c8063355274ea11610066578063355274ea1461011e57806370a082311461014457806395d89b411461016d578063a9059cbb14610175578063dd62ed3e1461018857600080fd5b806306fdde03146100a3578063095ea7b3146100c157806318160ddd146100e457806323b872dd146100f6578063313ce56714610109575b600080fd5b6100ab6101c1565b6040516100b89190610617565b60405180910390f35b6100d46100cf366004610681565b610253565b60405190151581526020016100b8565b6002545b6040519081526020016100b8565b6100d46101043660046106ab565b61026d565b60055460405160ff90911681526020016100b8565b7f00000000000000000000000000000000000000000000000000000000000000006100e8565b6100e86101523660046106e7565b6001600160a01b031660009081526020819052604090205490565b6100ab610291565b6100d4610183366004610681565b6102a0565b6100e8610196366004610709565b6001600160a01b03918216600090815260016020908152604080832093909416825291909152205490565b6060600380546101d09061073c565b80601f01602080910402602001604051908101604052809291908181526020018280546101fc9061073c565b80156102495780601f1061021e57610100808354040283529160200191610249565b820191906000526020600020905b81548152906001019060200180831161022c57829003601f168201915b5050505050905090565b6000336102618185856102ae565b60019150505b92915050565b60003361027b8582856102c0565b610286858585610343565b506001949350505050565b6060600480546101d09061073c565b600033610261818585610343565b6102bb83838360016103a2565b505050565b6001600160a01b03838116600090815260016020908152604080832093861683529290522054600019811461033d578181101561032e57604051637dc7a0d960e11b81526001600160a01b038416600482015260248101829052604481018390526064015b60405180910390fd5b61033d848484840360006103a2565b50505050565b6001600160a01b03831661036d57604051634b637e8f60e11b815260006004820152602401610325565b6001600160a01b0382166103975760405163ec442f0560e01b815260006004820152602401610325565b6102bb838383610477565b6001600160a01b0384166103cc5760405163e602df0560e01b815260006004820152602401610325565b6001600160a01b0383166103f657604051634a1406b160e11b815260006004820152602401610325565b6001600160a01b038085166000908152600160209081526040808320938716835292905220829055801561033d57826001600160a01b0316846001600160a01b03167f8c5be1e5ebec7d5bd14f71427d1e84f3dd0314c0f7b2291e5b200ac8c7c3b9258460405161046991815260200190565b60405180910390a350505050565b6102bb8383836104888383836104ed565b6001600160a01b0383166102bb576002547f000000000000000000000000000000000000000000000000000000000000000090818111156104e65760405163279e7e1560e21b81526004810182905260248101839052604401610325565b5050505050565b6001600160a01b03831661051857806002600082825461050d9190610776565b9091555061058a9050565b6001600160a01b0383166000908152602081905260409020548181101561056b5760405163391434e360e21b81526001600160a01b03851660048201526024810182905260448101839052606401610325565b6001600160a01b03841660009081526020819052604090209082900390555b6001600160a01b0382166105a6576002805482900390556105c5565b6001600160a01b03821660009081526020819052604090208054820190555b816001600160a01b0316836001600160a01b03167fddf252ad1be2c89b69c2b068fc378daa952ba7f163c4a11628f55a4df523b3ef8360405161060a91815260200190565b60405180910390a3505050565b600060208083528351808285015260005b8181101561064457858101830151858201604001528201610628565b506000604082860101526040601f19601f8301168501019250505092915050565b80356001600160a01b038116811461067c57600080fd5b919050565b6000806040838503121561069457600080fd5b61069d83610665565b946020939093013593505050565b6000806000606084860312156106c057600080fd5b6106c984610665565b92506106d760208501610665565b9150604084013590509250925092565b6000602082840312156106f957600080fd5b61070282610665565b9392505050565b6000806040838503121561071c57600080fd5b61072583610665565b915061073360208401610665565b90509250929050565b600181811c9082168061075057607f821691505b60208210810361077057634e487b7160e01b600052602260045260246000fd5b50919050565b8082018082111561026757634e487b7160e01b600052601160045260246000fdfea2646970667358221220029d19fb0a7da290cdcc9407107d5009341ca8820309a000d9bd722d6cf7076f64736f6c63430008140033",
  "linkReferences": {},
  "deployedLinkReferences": {}
}