{
  "_format": "hh-sol-artifact-1",
  "contractName": "BiatecToken",
  "sourceName": "contracts/BiatecToken.sol",
  "abi": [
    {
      "inputs": [
        {
          "internalType": "string",
          "name": "name",
          "type": "string"
        },
        {
          "internalType": "string",
          "name": "symbol",
          "type": "string"
        },
        {
          "internalType": "uint8",
          "name": "decimals_",
          "type": "uint8"
        },
        {
          "internalType": "uint256",
          "name": "initialSupply",
          "type": "uint256"
        },
        {
          "internalType": "address",
          "name": "initialSupplyReceiver",
          "type": "address"
        }
      ],
      "stateMutability": "nonpayable",
      "type": "constructor"
    },
    {
      "inputs": [
        {
          "internalType": "address",
          "name": "spender",
          "type": "address"
        },
        {
          "internalType": "uint256",
          "name": "allowance",
          "type": "uint256"
        },
        {
          "internalType": "uint256",
          "name": "needed",
          "type": "uint256"
        }
      ],
      "name": "ERC20InsufficientAllowance",
      "type": "error"
    },
    {
      "inputs": [
        {
          "internalType": "address",
          "name": "sender",
          "type": "address"
        },
        {
          "internalType": "uint256",
          "name": "balance",
          "type": "uint256"
        },
        {
          "internalType": "uint256",
          "name": "needed",
          "type": "uint256"
        }
      ],
      "name": "ERC20InsufficientBalance",
      "type": "error"
    },
    {
      "inputs": [
        {
          "internalType": "address",
          "name": "approver",
          "type": "address"
        }
      ],
      "name": "ERC20InvalidApprover",
      "type": "error"
    },
    {
      "inputs": [
        {
          "internalType": "address",
          "name": "receiver",
          "type": "address"
        }
      ],
      "name": "ERC20InvalidReceiver",
      "type": "error"
    },
    {
      "inputs": [
        {
          "internalType": "address",
          "name": "sender",
          "type": "address"
        }
      ],
      "name": "ERC20InvalidSender",
      "type": "error"
    },
    {
      "inputs": [
        {
          "internalType": "address",
          "name": "spender",
          "type": "address"
        }
      ],
      "name": "ERC20InvalidSpender",
      "type": "error"
    },
    {
      "inputs": [],
      "name": "EnforcedPause",
      "type": "error"
    },
    {
      "inputs": [],
      "name": "ExpectedPause",
      "type": "error"
    },
    {
      "inputs": [
        {
          "internalType": "address",
          "name": "owner",
          "type": "address"
        }
      ],
      "name": "OwnableInvalidOwner",
      "type": "error"
    },
    {
      "inputs": [
        {
          "internalType": "address",
          "name": "account",
          "type": "address"
        }
      ],
      "name": "OwnableUnauthorizedAccount",
      "type": "error"
    },
    {
      "anonymous": false,
      "inputs": [
        {
          "indexed": true,
          "internalType": "address",
          "name": "owner",
          "type": "address"
        },
        {
          "indexed": true,
          "internalType": "address",
          "name": "spender",
          "type": "address"
        },
        {
          "indexed": false,
          "internalType": "uint256",
          "name": "value",
          "type": "uint256"
        }
      ],
      "name": "Approval",
      "type": "event"
    },
    {
      "anonymous": false,
      "inputs": [
        {
          "indexed": true,
          "internalType": "address",
          "name": "newMinter",
          "type": "address"
        }
      ],
      "name": "MinterAdded",
      "type": "event"
    },
    {
      "anonymous": false,
      "inputs": [
        {
          "indexed": true,
          "internalType": "address",
          "name": "removedMinter",
          "type": "address"
        }
      ],
      "name": "MinterRemoved",
      "type": "event"
    },
    {
      "anonymous": false,
      "inputs": [
        {
          "indexed": true,
          "internalType": "address",
          "name": "previousOwner",
          "type": "address"
        },
        {
          "indexed": true,
          "internalType": "address",
          "name": "newOwner",
          "type": "address"
        }
      ],
      "name": "OwnershipTransferred",
      "type": "event"
    },
    {
      "anonymous": false,
      "inputs": [
        {
          "indexed": false,
          "internalType": "address",
          "name": "account",
          "type": "address"
        }
      ],
      "name": "Paused",
      "type": "event"
    },
    {
      "anonymous": false,
      "inputs": [
        {
          "indexed": true,
          "internalType": "address",
          "name": "from",
          "type": "address"
        },
        {
          "indexed": true,
          "internalType": "address",
          "name": "to",
          "type": "address"
        },
        {
          "indexed": false,
          "internalType": "uint256",
          "name": "value",
          "type": "uint256"
        }
      ],
      "name": "Transfer",
      "type": "event"
    },
    {
      "anonymous": false,
      "inputs": [
        {
          "indexed": false,
          "internalType": "address",
          "name": "account",
          "type": "address"
        }
      ],
      "name": "Unpaused",
      "type": "event"
    },
    {
      "inputs": [
        {
          "internalType": "address",
          "name": "newMinter",
          "type": "address"
        }
      ],
      "name": "addMinter",
      "outputs": [],
      "stateMutability": "nonpayable",
      "type": "function"
    },
    {
      "inputs": [
        {
          "internalType": "address",
          "name": "owner",
          "type": "address"
        },
        {
          "internalType": "address",
          "name": "spender",
          "type": "address"
        }
      ],
      "name": "allowance",
      "outputs": [
        {
          "internalType": "uint256",
          "name": "",
          "type": "uint256"
        }
      ],
      "stateMutability": "view",
      "type": "function"
    },
    {
      "inputs": [
        {
          "internalType": "address",
          "name": "spender",
          "type": "address"
        },
        {
          "internalType": "uint256",
          "name": "value",
          "type": "uint256"
        }
      ],
      "name": "approve",
      "outputs": [
        {
          "internalType": "bool",
          "name": "",
          "type": "bool"
        }
      ],
      "stateMutability": "nonpayable",
      "type": "function"
    },
    {
      "inputs": [
        {
          "internalType": "address",
          "name": "account",
          "type": "address"
        }
      ],
      "name": "balanceOf",
      "outputs": [
        {
          "internalType": "uint256",
          "name": "",
          "type": "uint256"
        }
      ],
      "stateMutability": "view",
      "type": "function"
    },
    {
      "inputs": [
        {
          "internalType": "uint256",
          "name": "amount",
          "type": "uint256"
        }
      ],
      "name": "burn",
      "outputs": [],
      "stateMutability": "nonpayable",
      "type": "function"
    },
    {
      "inputs": [
        {
          "internalType": "address",
          "name": "from",
          "type": "address"
        },
        {
          "internalType": "uint256",
          "name": "amount",
          "type": "uint256"
        }
      ],
      "name": "burnFrom",
      "outputs": [],
      "stateMutability": "nonpayable",
      "type": "function"
    },
    {
      "inputs": [],
      "name": "decimals",
      "outputs": [
        {
          "internalType": "uint8",
          "name": "",
          "type": "uint8"
        }
      ],
      "stateMutability": "view",
      "type": "function"
    },
    {
      "inputs": [
        {
          "internalType": "address[]",
          "name": "possibleMinters",
          "type": "address[]"
        }
      ],
      "name": "listMinters",
      "outputs": [
        {
          "internalType": "address[]",
          "name": "",
          "type": "address[]"
        }
      ],
      "stateMutability": "view",
      "type": "function"
    },
    {
      "inputs": [
        {
          "internalType": "address",
          "name": "to",
          "type": "address"
        },
        {
          "internalType": "uint256",
          "name": "amount",
          "type": "uint256"
        }
      ],
      "name": "mint",
      "outputs": [],
      "stateMutability": "nonpayable",
      "type": "function"
    },
    {
      "inputs": [
        {
          "internalType": "address",
          "name": "",
          "type": "address"
        }
      ],
      "name": "minters",
      "outputs": [
        {
          "internalType": "bool",
          "name": "",
          "type": "bool"
        }
      ],
      "stateMutability": "view",
      "type": "function"
    },
    {
      "inputs": [],
      "name": "name",
      "outputs": [
        {
          "internalType": "string",
          "name": "",
          "type": "string"
        }
      ],
      "stateMutability": "view",
      "type": "function"
    },
    {
      "inputs": [],
      "name": "owner",
      "outputs": [
        {
          "internalType": "address",
          "name": "",
          "type": "address"
        }
      ],
      "stateMutability": "view",
      "type": "function"
    },
    {
      "inputs": [],
      "name": "pause",
      "outputs": [],
      "stateMutability": "nonpayable",
      "type": "function"
    },
    {
      "inputs": [],
      "name": "paused",
      "outputs": [
        {
          "internalType": "bool",
          "name": "",
          "type": "bool"
        }
      ],
      "stateMutability": "view",
      "type": "function"
    },
    {
      "inputs": [
        {
          "internalType": "address",
          "name": "minterToRemove",
          "type": "address"
        }
      ],
      "name": "removeMinter",
      "outputs": [],
      "stateMutability": "nonpayable",
      "type": "function"
    },
    {
      "inputs": [],
      "name": "renounceOwnership",
      "outputs": [],
      "stateMutability": "nonpayable",
      "type": "function"
    },
    {
      "inputs": [],
      "name": "symbol",
      "outputs": [
        {
          "internalType": "string",
          "name": "",
          "type": "string"
        }
      ],
      "stateMutability": "view",
      "type": "function"
    },
    {
      "inputs": [],
      "name": "totalSupply",
      "outputs": [
        {
          "internalType": "uint256",
          "name": "",
          "type": "uint256"
        }
      ],
      "stateMutability": "view",
      "type": "function"
    },
    {
      "inputs": [
        {
          "internalType": "address",
          "name": "to",
          "type": "address"
        },
        {
          "internalType": "uint256",
          "name": "value",
          "type": "uint256"
        }
      ],
      "name": "transfer",
      "outputs": [
        {
          "internalType": "bool",
          "name": "",
          "type": "bool"
        }
      ],
      "stateMutability": "nonpayable",
      "type": "function"
    },
    {
      "inputs": [
        {
          "internalType": "address",
          "name": "from",
          "type": "address"
        },
        {
          "internalType": "address",
          "name": "to",
          "type": "address"
        },
        {
          "internalType": "uint256",
          "name": "value",
          "type": "uint256"
        }
      ],
      "name": "transferFrom",
      "outputs": [
        {
          "internalType": "bool",
          "name": "",
          "type": "bool"
        }
      ],
      "stateMutability": "nonpayable",
      "type": "function"
    },
    {
      "inputs": [
        {
          "internalType": "address",
          "name": "newOwner",
          "type": "address"
        }
      ],
      "name": "transferOwnership",
      "outputs": [],
      "stateMutability": "nonpayable",
      "type": "function"
    },
    {
      "inputs": [],
      "name": "unpause",
      "outputs": [],
      "stateMutability": "nonpayable",
      "type": "function"
    }
  ],
  "bytecode": "0x60806040523480156200001157600080fd5b5060405162001692380380620016928339810160408190526200003491620003df565b33858560036200004583826200051d565b5060046200005482826200051d565b50506005805460ff19169055506001600160a01b0381166200009157604051631e4fbdf760e01b8152600060048201526024015b60405180910390fd5b6200009c816200010c565b506005805460ff60a81b1916600160a81b60ff861602179055336000908152600660205260409020805460ff191660011790558115620001015760006001600160a01b03821615620000ef5781620000f1565b335b9050620000ff818462000166565b505b505050505062000611565b600580546001600160a01b03838116610100818102610100600160a81b031985161790945560405193909204169182907f8be0079c531659141344cd1fd0a4f28419497f9722a3daafe3b4186f6b6457e090600090a35050565b6001600160a01b038216620001925760405163ec442f0560e01b81526000600482015260240162000088565b620001a060008383620001a4565b5050565b620001ae620001c0565b620001bb838383620001e7565b505050565b60055460ff1615620001e55760405163d93c066560e01b815260040160405180910390fd5b565b6001600160a01b038316620002165780600260008282546200020a9190620005e9565b909155506200028a9050565b6001600160a01b038316600090815260208190526040902054818110156200026b5760405163391434e360e21b81526001600160a01b0385166004820152602481018290526044810183905260640162000088565b6001600160a01b03841660009081526020819052604090209082900390555b6001600160a01b038216620002a857600280548290039055620002c7565b6001600160a01b03821660009081526020819052604090208054820190555b816001600160a01b0316836001600160a01b03167fddf252ad1be2c89b69c2b068fc378daa952ba7f163c4a11628f55a4df523b3ef836040516200030d91815260200190565b60405180910390a3505050565b634e487b7160e01b600052604160045260246000fd5b600082601f8301126200034257600080fd5b81516001600160401b03808211156200035f576200035f6200031a565b604051601f8301601f19908116603f011681019082821181831017156200038a576200038a6200031a565b81604052838152602092508683858801011115620003a757600080fd5b600091505b83821015620003cb5785820183015181830184015290820190620003ac565b600093810190920192909252949350505050565b600080600080600060a08688031215620003f857600080fd5b85516001600160401b03808211156200041057600080fd5b6200041e89838a0162000330565b965060208801519150808211156200043557600080fd5b50620004448882890162000330565b945050604086015160ff811681146200045c57600080fd5b6060870151608088015191945092506001600160a01b03811681146200048157600080fd5b809150509295509295909350565b600181811c90821680620004a457607f821691505b602082108103620004c557634e487b7160e01b600052602260045260246000fd5b50919050565b601f821115620001bb57600081815260208120601f850160051c81016020861015620004f45750805b601f850160051c820191505b81811015620005155782815560010162000500565b505050505050565b81516001600160401b038111156200053957620005396200031a565b62000551816200054a84546200048f565b84620004cb565b602080601f831160018114620005895760008415620005705750858301515b600019600386901b1c1916600185901b17855562000515565b600085815260208120601f198616915b82811015620005ba5788860151825594840194600190910190840162000599565b5085821015620005d95787850151600019600388901b60f8161c191681555b5050505050600190811b01905550565b808201808211156200060b57634e487b7160e01b600052601160045260246000fd5b92915050565b61107180620006216000396000f3fe608060405234801561001057600080fd5b50600436106101425760003560e01c8063715018a6116100b8578063983b2d561161007c578063983b2d5614610297578063a9059cbb146102aa578063d4e64c54146102bd578063dd62ed3e146102dd578063f2fde38b14610316578063f46eccc41461032957600080fd5b8063715018a61461024357806379cc67901461024b5780638456cb591461025e5780638da5cb5b1461026657806395d89b411461028f57600080fd5b8063313ce5671161010a578063313ce567146101c25780633f4ba83a146101e157806340c10f19146101e957806342966c68146101fc5780635c975abb1461020f57806370a082311461021a57600080fd5b806306fdde0314610147578063095ea7b31461016557806318160ddd1461018857806323b872dd1461019a5780633092afd5146101ad575b600080fd5b61014f61034c565b60405161015c9190610d93565b60405180910390f35b610178610173366004610dfd565b6103de565b604051901515815260200161015c565b6002545b60405190815260200161015c565b6101786101a8366004610e27565b6103f8565b6101c06101bb366004610e63565b61041c565b005b600554600160a81b900460ff1660405160ff909116815260200161015c565b6101c06104c9565b6101c06101f7366004610dfd565b6104db565b6101c061020a366004610e85565b610589565b60055460ff16610178565b61018c610228366004610e63565b6001600160a01b031660009081526020819052604090205490565b6101c0610596565b6101c0610259366004610dfd565b6105a8565b6101c06105bd565b60055461010090046001600160a01b03166040516001600160a01b03909116815260200161015c565b61014f6105cd565b6101c06102a5366004610e63565b6105dc565b6101786102b8366004610dfd565b6106e2565b6102d06102cb366004610e9e565b6106f0565b60405161015c9190610f13565b61018c6102eb366004610f60565b6001600160a01b03918216600090815260016020908152604080832093909416825291909152205490565b6101c0610324366004610e63565b610888565b610178610337366004610e63565b60066020526000908152604090205460ff1681565b60606003805461035b90610f93565b80601f016020809104026020016040519081016040528092919081815260200182805461038790610f93565b80156103d45780601f106103a9576101008083540402835291602001916103d4565b820191906000526020600020905b8154815290600101906020018083116103b757829003601f168201915b5050505050905090565b6000336103ec8185856108c3565b60019150505b92915050565b6000336104068582856108d5565b610411858585610953565b506001949350505050565b6104246109b2565b6001600160a01b03811660009081526006602052604090205460ff166104805760405162461bcd60e51b815260206004820152600c60248201526b2737ba10309036b4b73a32b960a11b60448201526064015b60405180910390fd5b6001600160a01b038116600081815260066020526040808220805460ff19169055517fe94479a9f7e1952cc78f2d6baab678adc1b772d936c6583def489e524cb666929190a250565b6104d16109b2565b6104d96109e5565b565b3360009081526006602052604090205460ff168061051a575060055461010090046001600160a01b03166001600160a01b0316336001600160a01b0316145b61057b5760405162461bcd60e51b815260206004820152602c60248201527f4f6e6c79206d696e746572206f72206f776e65722063616e20706572666f726d60448201526b103a3434b99030b1ba34b7b760a11b6064820152608401610477565b6105858282610a37565b5050565b6105933382610a6d565b50565b61059e6109b2565b6104d96000610aa3565b6105b38233836108d5565b6105858282610a6d565b6105c56109b2565b6104d9610afd565b60606004805461035b90610f93565b6105e46109b2565b6001600160a01b03811661063a5760405162461bcd60e51b815260206004820152601d60248201527f4d696e7465722063616e6e6f74206265207a65726f20616464726573730000006044820152606401610477565b6001600160a01b03811660009081526006602052604090205460ff16156106965760405162461bcd60e51b815260206004820152601060248201526f20b63932b0b23c90309036b4b73a32b960811b6044820152606401610477565b6001600160a01b038116600081815260066020526040808220805460ff19166001179055517f6ae172837ea30b801fbfcdd4108aa1d5bf8ff775444fd70256b44e6bf3dfc3f69190a250565b6000336103ec818585610953565b60606000805b8381101561076b576006600086868481811061071457610714610fcd565b90506020020160208101906107299190610e63565b6001600160a01b0316815260208101919091526040016000205460ff1615610759578161075581610ff9565b9250505b8061076381610ff9565b9150506106f6565b5060008167ffffffffffffffff81111561078757610787611012565b6040519080825280602002602001820160405280156107b0578160200160208202803683370190505b5090506000805b8581101561087d57600660008888848181106107d5576107d5610fcd565b90506020020160208101906107ea9190610e63565b6001600160a01b0316815260208101919091526040016000205460ff161561086b5786868281811061081e5761081e610fcd565b90506020020160208101906108339190610e63565b83838151811061084557610845610fcd565b6001600160a01b03909216602092830291909101909101528161086781610ff9565b9250505b8061087581610ff9565b9150506107b7565b509095945050505050565b6108906109b2565b6001600160a01b0381166108ba57604051631e4fbdf760e01b815260006004820152602401610477565b61059381610aa3565b6108d08383836001610b3a565b505050565b6001600160a01b03838116600090815260016020908152604080832093861683529290522054600019811461094d578181101561093e57604051637dc7a0d960e11b81526001600160a01b03841660048201526024810182905260448101839052606401610477565b61094d84848484036000610b3a565b50505050565b6001600160a01b03831661097d57604051634b637e8f60e11b815260006004820152602401610477565b6001600160a01b0382166109a75760405163ec442f0560e01b815260006004820152602401610477565b6108d0838383610c0f565b6005546001600160a01b036101009091041633146104d95760405163118cdaa760e01b8152336004820152602401610477565b6109ed610c22565b6005805460ff191690557f5db9ee0a495bf2e6ff9c91a7834c1ba4fdd244a5e8aa4e537bd38aeae4b073aa335b6040516001600160a01b03909116815260200160405180910390a1565b6001600160a01b038216610a615760405163ec442f0560e01b815260006004820152602401610477565b61058560008383610c0f565b6001600160a01b038216610a9757604051634b637e8f60e11b815260006004820152602401610477565b61058582600083610c0f565b600580546001600160a01b03838116610100818102610100600160a81b031985161790945560405193909204169182907f8be0079c531659141344cd1fd0a4f28419497f9722a3daafe3b4186f6b6457e090600090a35050565b610b05610c45565b6005805460ff191660011790557f62e78cea01bee320cd4e420270b5ea74000d11b0c9f74754ebdbfc544b05a258610a1a3390565b6001600160a01b038416610b645760405163e602df0560e01b815260006004820152602401610477565b6001600160a01b038316610b8e57604051634a1406b160e11b815260006004820152602401610477565b6001600160a01b038085166000908152600160209081526040808320938716835292905220829055801561094d57826001600160a01b0316846001600160a01b03167f8c5be1e5ebec7d5bd14f71427d1e84f3dd0314c0f7b2291e5b200ac8c7c3b92584604051610c0191815260200190565b60405180910390a350505050565b610c17610c45565b6108d0838383610c69565b60055460ff166104d957604051638dfc202b60e01b815260040160405180910390fd5b60055460ff16156104d95760405163d93c066560e01b815260040160405180910390fd5b6001600160a01b038316610c94578060026000828254610c899190611028565b90915550610d069050565b6001600160a01b03831660009081526020819052604090205481811015610ce75760405163391434e360e21b81526001600160a01b03851660048201526024810182905260448101839052606401610477565b6001600160a01b03841660009081526020819052604090209082900390555b6001600160a01b038216610d2257600280548290039055610d41565b6001600160a01b03821660009081526020819052604090208054820190555b816001600160a01b0316836001600160a01b03167fddf252ad1be2c89b69c2b068fc378daa952ba7f163c4a11628f55a4df523b3ef83604051610d8691815260200190565b60405180910390a3505050565b600060208083528351808285015260005b81811015610dc057858101830151858201604001528201610da4565b506000604082860101526040601f19601f8301168501019250505092915050565b80356001600160a01b0381168114610df857600080fd5b919050565b60008060408385031215610e1057600080fd5b610e1983610de1565b946020939093013593505050565b600080600060608486031215610e3c57600080fd5b610e4584610de1565b9250610e5360208501610de1565b9150604084013590509250925092565b600060208284031215610e7557600080fd5b610e7e82610de1565b9392505050565b600060208284031215610e9757600080fd5b5035919050565b60008060208385031215610eb157600080fd5b823567ffffffffffffffff80821115610ec957600080fd5b818501915085601f830112610edd57600080fd5b813581811115610eec57600080fd5b8660208260051b8501011115610f0157600080fd5b60209290920196919550909350505050565b6020808252825182820181905260009190848201906040850190845b81811015610f545783516001600160a01b031683529284019291840191600101610f2f565b50909695505050505050565b60008060408385031215610f7357600080fd5b610f7c83610de1565b9150610f8a60208401610de1565b90509250929050565b600181811c90821680610fa757607f821691505b602082108103610fc757634e487b7160e01b600052602260045260246000fd5b50919050565b634e487b7160e01b600052603260045260246000fd5b634e487b7160e01b600052601160045260246000fd5b60006001820161100b5761100b610fe3565b5060010190565b634e487b7160e01b600052604160045260246000fd5b808201808211156103f2576103f2610fe356fea2646970667358221220db4649677e6816744cafe0edbf3fb07ab6d398a100c40e20f07ba4aed1afac0764736f6c63430008140033",
  "linkReferences": {},
  "deployedLinkReferences": {}
}