{
  "_format": "hh-sol-artifact-1",
  "contractName": "BiatecToken",
  "sourceName": "contracts/BiatecToken.sol",
  "abi": [
    {
      "inputs": [
        {
          "internalType": "string",
          "name": "name",
          "type": "string"
        },
        {
          "internalType": "string",
          "name": "symbol",
          "type": "string"
        },
        {
          "internalType": "uint8",
          "name": "decimals_",
          "type": "uint8"
        },
        {
          "internalType": "address",
          "name": "minter_",
          "type": "address"
        },
        {
          "internalType": "uint256",
          "name": "premint",
          "type": "uint256"
        }
      ],
      "stateMutability": "nonpayable",
      "type": "constructor"
    },
    {
      "inputs": [
        {
          "internalType": "address",
          "name": "spender",
          "type": "address"
        },
        {
          "internalType": "uint256",
          "name": "allowance",
          "type": "uint256"
        },
        {
          "internalType": "uint256",
          "name": "needed",
          "type": "uint256"
        }
      ],
      "name": "ERC20InsufficientAllowance",
      "type": "error"
    },
    {
      "inputs": [
        {
          "internalType": "address",
          "name": "sender",
          "type": "address"
        },
        {
          "internalType": "uint256",
          "name": "balance",
          "type": "uint256"
        },
        {
          "internalType": "uint256",
          "name": "needed",
          "type": "uint256"
        }
      ],
      "name": "ERC20InsufficientBalance",
      "type": "error"
    },
    {
      "inputs": [
        {
          "internalType": "address",
          "name": "approver",
          "type": "address"
        }
      ],
      "name": "ERC20InvalidApprover",
      "type": "error"
    },
    {
      "inputs": [
        {
          "internalType": "address",
          "name": "receiver",
          "type": "address"
        }
      ],
      "name": "ERC20InvalidReceiver",
      "type": "error"
    },
    {
      "inputs": [
        {
          "internalType": "address",
          "name": "sender",
          "type": "address"
        }
      ],
      "name": "ERC20InvalidSender",
      "type": "error"
    },
    {
      "inputs": [
        {
          "internalType": "address",
          "name": "spender",
          "type": "address"
        }
      ],
      "name": "ERC20InvalidSpender",
      "type": "error"
    },
    {
      "inputs": [],
      "name": "EnforcedPause",
      "type": "error"
    },
    {
      "inputs": [],
      "name": "ExpectedPause",
      "type": "error"
    },
    {
      "inputs": [
        {
          "internalType": "address",
          "name": "owner",
          "type": "address"
        }
      ],
      "name": "OwnableInvalidOwner",
      "type": "error"
    },
    {
      "inputs": [
        {
          "internalType": "address",
          "name": "account",
          "type": "address"
        }
      ],
      "name": "OwnableUnauthorizedAccount",
      "type": "error"
    },
    {
      "anonymous": false,
      "inputs": [
        {
          "indexed": true,
          "internalType": "address",
          "name": "owner",
          "type": "address"
        },
        {
          "indexed": true,
          "internalType": "address",
          "name": "spender",
          "type": "address"
        },
        {
          "indexed": false,
          "internalType": "uint256",
          "name": "value",
          "type": "uint256"
        }
      ],
      "name": "Approval",
      "type": "event"
    },
    {
      "anonymous": false,
      "inputs": [
        {
          "indexed": true,
          "internalType": "address",
          "name": "oldMinter",
          "type": "address"
        },
        {
          "indexed": true,
          "internalType": "address",
          "name": "newMinter",
          "type": "address"
        }
      ],
      "name": "MinterChanged",
      "type": "event"
    },
    {
      "anonymous": false,
      "inputs": [
        {
          "indexed": true,
          "internalType": "address",
          "name": "previousOwner",
          "type": "address"
        },
        {
          "indexed": true,
          "internalType": "address",
          "name": "newOwner",
          "type": "address"
        }
      ],
      "name": "OwnershipTransferred",
      "type": "event"
    },
    {
      "anonymous": false,
      "inputs": [
        {
          "indexed": false,
          "internalType": "address",
          "name": "account",
          "type": "address"
        }
      ],
      "name": "Paused",
      "type": "event"
    },
    {
      "anonymous": false,
      "inputs": [
        {
          "indexed": true,
          "internalType": "address",
          "name": "from",
          "type": "address"
        },
        {
          "indexed": true,
          "internalType": "address",
          "name": "to",
          "type": "address"
        },
        {
          "indexed": false,
          "internalType": "uint256",
          "name": "value",
          "type": "uint256"
        }
      ],
      "name": "Transfer",
      "type": "event"
    },
    {
      "anonymous": false,
      "inputs": [
        {
          "indexed": false,
          "internalType": "address",
          "name": "account",
          "type": "address"
        }
      ],
      "name": "Unpaused",
      "type": "event"
    },
    {
      "inputs": [
        {
          "internalType": "address",
          "name": "owner",
          "type": "address"
        },
        {
          "internalType": "address",
          "name": "spender",
          "type": "address"
        }
      ],
      "name": "allowance",
      "outputs": [
        {
          "internalType": "uint256",
          "name": "",
          "type": "uint256"
        }
      ],
      "stateMutability": "view",
      "type": "function"
    },
    {
      "inputs": [
        {
          "internalType": "address",
          "name": "spender",
          "type": "address"
        },
        {
          "internalType": "uint256",
          "name": "value",
          "type": "uint256"
        }
      ],
      "name": "approve",
      "outputs": [
        {
          "internalType": "bool",
          "name": "",
          "type": "bool"
        }
      ],
      "stateMutability": "nonpayable",
      "type": "function"
    },
    {
      "inputs": [
        {
          "internalType": "address",
          "name": "account",
          "type": "address"
        }
      ],
      "name": "balanceOf",
      "outputs": [
        {
          "internalType": "uint256",
          "name": "",
          "type": "uint256"
        }
      ],
      "stateMutability": "view",
      "type": "function"
    },
    {
      "inputs": [
        {
          "internalType": "uint256",
          "name": "amount",
          "type": "uint256"
        }
      ],
      "name": "burn",
      "outputs": [],
      "stateMutability": "nonpayable",
      "type": "function"
    },
    {
      "inputs": [
        {
          "internalType": "address",
          "name": "from",
          "type": "address"
        },
        {
          "internalType": "uint256",
          "name": "amount",
          "type": "uint256"
        }
      ],
      "name": "burnFrom",
      "outputs": [],
      "stateMutability": "nonpayable",
      "type": "function"
    },
    {
      "inputs": [],
      "name": "decimals",
      "outputs": [
        {
          "internalType": "uint8",
          "name": "",
          "type": "uint8"
        }
      ],
      "stateMutability": "view",
      "type": "function"
    },
    {
      "inputs": [
        {
          "internalType": "address",
          "name": "to",
          "type": "address"
        },
        {
          "internalType": "uint256",
          "name": "amount",
          "type": "uint256"
        }
      ],
      "name": "mint",
      "outputs": [],
      "stateMutability": "nonpayable",
      "type": "function"
    },
    {
      "inputs": [],
      "name": "minter",
      "outputs": [
        {
          "internalType": "address",
          "name": "",
          "type": "address"
        }
      ],
      "stateMutability": "view",
      "type": "function"
    },
    {
      "inputs": [],
      "name": "name",
      "outputs": [
        {
          "internalType": "string",
          "name": "",
          "type": "string"
        }
      ],
      "stateMutability": "view",
      "type": "function"
    },
    {
      "inputs": [],
      "name": "owner",
      "outputs": [
        {
          "internalType": "address",
          "name": "",
          "type": "address"
        }
      ],
      "stateMutability": "view",
      "type": "function"
    },
    {
      "inputs": [],
      "name": "pause",
      "outputs": [],
      "stateMutability": "nonpayable",
      "type": "function"
    },
    {
      "inputs": [],
      "name": "paused",
      "outputs": [
        {
          "internalType": "bool",
          "name": "",
          "type": "bool"
        }
      ],
      "stateMutability": "view",
      "type": "function"
    },
    {
      "inputs": [],
      "name": "renounceOwnership",
      "outputs": [],
      "stateMutability": "nonpayable",
      "type": "function"
    },
    {
      "inputs": [
        {
          "internalType": "address",
          "name": "newMinter",
          "type": "address"
        }
      ],
      "name": "setMinter",
      "outputs": [],
      "stateMutability": "nonpayable",
      "type": "function"
    },
    {
      "inputs": [],
      "name": "symbol",
      "outputs": [
        {
          "internalType": "string",
          "name": "",
          "type": "string"
        }
      ],
      "stateMutability": "view",
      "type": "function"
    },
    {
      "inputs": [],
      "name": "totalSupply",
      "outputs": [
        {
          "internalType": "uint256",
          "name": "",
          "type": "uint256"
        }
      ],
      "stateMutability": "view",
      "type": "function"
    },
    {
      "inputs": [
        {
          "internalType": "address",
          "name": "to",
          "type": "address"
        },
        {
          "internalType": "uint256",
          "name": "value",
          "type": "uint256"
        }
      ],
      "name": "transfer",
      "outputs": [
        {
          "internalType": "bool",
          "name": "",
          "type": "bool"
        }
      ],
      "stateMutability": "nonpayable",
      "type": "function"
    },
    {
      "inputs": [
        {
          "internalType": "address",
          "name": "from",
          "type": "address"
        },
        {
          "internalType": "address",
          "name": "to",
          "type": "address"
        },
        {
          "internalType": "uint256",
          "name": "value",
          "type": "uint256"
        }
      ],
      "name": "transferFrom",
      "outputs": [
        {
          "internalType": "bool",
          "name": "",
          "type": "bool"
        }
      ],
      "stateMutability": "nonpayable",
      "type": "function"
    },
    {
      "inputs": [
        {
          "internalType": "address",
          "name": "newOwner",
          "type": "address"
        }
      ],
      "name": "transferOwnership",
      "outputs": [],
      "stateMutability": "nonpayable",
      "type": "function"
    },
    {
      "inputs": [],
      "name": "unpause",
      "outputs": [],
      "stateMutability": "nonpayable",
      "type": "function"
    }
  ],
  "bytecode": "0x60806040523480156200001157600080fd5b506040516200126b3803806200126b8339810160408190526200003491620003eb565b338585600362000045838262000529565b50600462000054828262000529565b50506005805460ff19169055506001600160a01b0381166200009157604051631e4fbdf760e01b8152600060048201526024015b60405180910390fd5b6200009c8162000118565b506005805460ff60a81b1916600160a81b60ff8616021790556001600160a01b03821615620000cc5781620000ce565b335b600680546001600160a01b0319166001600160a01b039290921691909117905580156200010d576006546200010d906001600160a01b03168262000172565b50505050506200061d565b600580546001600160a01b03838116610100818102610100600160a81b031985161790945560405193909204169182907f8be0079c531659141344cd1fd0a4f28419497f9722a3daafe3b4186f6b6457e090600090a35050565b6001600160a01b0382166200019e5760405163ec442f0560e01b81526000600482015260240162000088565b620001ac60008383620001b0565b5050565b620001ba620001cc565b620001c7838383620001f3565b505050565b60055460ff1615620001f15760405163d93c066560e01b815260040160405180910390fd5b565b6001600160a01b03831662000222578060026000828254620002169190620005f5565b90915550620002969050565b6001600160a01b03831660009081526020819052604090205481811015620002775760405163391434e360e21b81526001600160a01b0385166004820152602481018290526044810183905260640162000088565b6001600160a01b03841660009081526020819052604090209082900390555b6001600160a01b038216620002b457600280548290039055620002d3565b6001600160a01b03821660009081526020819052604090208054820190555b816001600160a01b0316836001600160a01b03167fddf252ad1be2c89b69c2b068fc378daa952ba7f163c4a11628f55a4df523b3ef836040516200031991815260200190565b60405180910390a3505050565b634e487b7160e01b600052604160045260246000fd5b600082601f8301126200034e57600080fd5b81516001600160401b03808211156200036b576200036b62000326565b604051601f8301601f19908116603f0116810190828211818310171562000396576200039662000326565b81604052838152602092508683858801011115620003b357600080fd5b600091505b83821015620003d75785820183015181830184015290820190620003b8565b600093810190920192909252949350505050565b600080600080600060a086880312156200040457600080fd5b85516001600160401b03808211156200041c57600080fd5b6200042a89838a016200033c565b965060208801519150808211156200044157600080fd5b5062000450888289016200033c565b945050604086015160ff811681146200046857600080fd5b60608701519093506001600160a01b03811681146200048657600080fd5b80925050608086015190509295509295909350565b600181811c90821680620004b057607f821691505b602082108103620004d157634e487b7160e01b600052602260045260246000fd5b50919050565b601f821115620001c757600081815260208120601f850160051c81016020861015620005005750805b601f850160051c820191505b8181101562000521578281556001016200050c565b505050505050565b81516001600160401b0381111562000545576200054562000326565b6200055d816200055684546200049b565b84620004d7565b602080601f8311600181146200059557600084156200057c5750858301515b600019600386901b1c1916600185901b17855562000521565b600085815260208120601f198616915b82811015620005c657888601518255948401946001909101908401620005a5565b5085821015620005e55787850151600019600388901b60f8161c191681555b5050505050600190811b01905550565b808201808211156200061757634e487b7160e01b600052601160045260246000fd5b92915050565b610c3e806200062d6000396000f3fe608060405234801561001057600080fd5b506004361061012c5760003560e01c806370a08231116100ad57806395d89b411161007157806395d89b411461027e578063a9059cbb14610286578063dd62ed3e14610299578063f2fde38b146102d2578063fca3b5aa146102e557600080fd5b806370a082311461021c578063715018a61461024557806379cc67901461024d5780638456cb59146102605780638da5cb5b1461026857600080fd5b8063313ce567116100f4578063313ce567146101c25780633f4ba83a146101e157806340c10f19146101eb57806342966c68146101fe5780635c975abb1461021157600080fd5b806306fdde0314610131578063075461721461014f578063095ea7b31461017a57806318160ddd1461019d57806323b872dd146101af575b600080fd5b6101396102f8565b6040516101469190610a6f565b60405180910390f35b600654610162906001600160a01b031681565b6040516001600160a01b039091168152602001610146565b61018d610188366004610ad9565b61038a565b6040519015158152602001610146565b6002545b604051908152602001610146565b61018d6101bd366004610b03565b6103a4565b600554600160a81b900460ff1660405160ff9091168152602001610146565b6101e96103c8565b005b6101e96101f9366004610ad9565b6103da565b6101e961020c366004610b3f565b610453565b60055460ff1661018d565b6101a161022a366004610b58565b6001600160a01b031660009081526020819052604090205490565b6101e9610460565b6101e961025b366004610ad9565b610472565b6101e9610487565b60055461010090046001600160a01b0316610162565b610139610497565b61018d610294366004610ad9565b6104a6565b6101a16102a7366004610b7a565b6001600160a01b03918216600090815260016020908152604080832093909416825291909152205490565b6101e96102e0366004610b58565b6104b4565b6101e96102f3366004610b58565b6104ef565b60606003805461030790610bad565b80601f016020809104026020016040519081016040528092919081815260200182805461033390610bad565b80156103805780601f1061035557610100808354040283529160200191610380565b820191906000526020600020905b81548152906001019060200180831161036357829003601f168201915b5050505050905090565b60003361039881858561059f565b60019150505b92915050565b6000336103b28582856105b1565b6103bd85858561062f565b506001949350505050565b6103d061068e565b6103d86106c1565b565b6006546001600160a01b031633146104455760405162461bcd60e51b815260206004820152602360248201527f4f6e6c79206d696e7465722063616e20706572666f726d20746869732061637460448201526234b7b760e91b60648201526084015b60405180910390fd5b61044f8282610713565b5050565b61045d3382610749565b50565b61046861068e565b6103d8600061077f565b61047d8233836105b1565b61044f8282610749565b61048f61068e565b6103d86107d9565b60606004805461030790610bad565b60003361039881858561062f565b6104bc61068e565b6001600160a01b0381166104e657604051631e4fbdf760e01b81526000600482015260240161043c565b61045d8161077f565b6104f761068e565b6001600160a01b03811661054d5760405162461bcd60e51b815260206004820152601d60248201527f4d696e7465722063616e6e6f74206265207a65726f2061646472657373000000604482015260640161043c565b600680546001600160a01b038381166001600160a01b0319831681179093556040519116919082907f3b0007eb941cf645526cbb3a4fdaecda9d28ce4843167d9263b536a1f1edc0f690600090a35050565b6105ac8383836001610816565b505050565b6001600160a01b038381166000908152600160209081526040808320938616835292905220546000198114610629578181101561061a57604051637dc7a0d960e11b81526001600160a01b0384166004820152602481018290526044810183905260640161043c565b61062984848484036000610816565b50505050565b6001600160a01b03831661065957604051634b637e8f60e11b81526000600482015260240161043c565b6001600160a01b0382166106835760405163ec442f0560e01b81526000600482015260240161043c565b6105ac8383836108eb565b6005546001600160a01b036101009091041633146103d85760405163118cdaa760e01b815233600482015260240161043c565b6106c96108fe565b6005805460ff191690557f5db9ee0a495bf2e6ff9c91a7834c1ba4fdd244a5e8aa4e537bd38aeae4b073aa335b6040516001600160a01b03909116815260200160405180910390a1565b6001600160a01b03821661073d5760405163ec442f0560e01b81526000600482015260240161043c565b61044f600083836108eb565b6001600160a01b03821661077357604051634b637e8f60e11b81526000600482015260240161043c565b61044f826000836108eb565b600580546001600160a01b03838116610100818102610100600160a81b031985161790945560405193909204169182907f8be0079c531659141344cd1fd0a4f28419497f9722a3daafe3b4186f6b6457e090600090a35050565b6107e1610921565b6005805460ff191660011790557f62e78cea01bee320cd4e420270b5ea74000d11b0c9f74754ebdbfc544b05a2586106f63390565b6001600160a01b0384166108405760405163e602df0560e01b81526000600482015260240161043c565b6001600160a01b03831661086a57604051634a1406b160e11b81526000600482015260240161043c565b6001600160a01b038085166000908152600160209081526040808320938716835292905220829055801561062957826001600160a01b0316846001600160a01b03167f8c5be1e5ebec7d5bd14f71427d1e84f3dd0314c0f7b2291e5b200ac8c7c3b925846040516108dd91815260200190565b60405180910390a350505050565b6108f3610921565b6105ac838383610945565b60055460ff166103d857604051638dfc202b60e01b815260040160405180910390fd5b60055460ff16156103d85760405163d93c066560e01b815260040160405180910390fd5b6001600160a01b0383166109705780600260008282546109659190610be7565b909155506109e29050565b6001600160a01b038316600090815260208190526040902054818110156109c35760405163391434e360e21b81526001600160a01b0385166004820152602481018290526044810183905260640161043c565b6001600160a01b03841660009081526020819052604090209082900390555b6001600160a01b0382166109fe57600280548290039055610a1d565b6001600160a01b03821660009081526020819052604090208054820190555b816001600160a01b0316836001600160a01b03167fddf252ad1be2c89b69c2b068fc378daa952ba7f163c4a11628f55a4df523b3ef83604051610a6291815260200190565b60405180910390a3505050565b600060208083528351808285015260005b81811015610a9c57858101830151858201604001528201610a80565b506000604082860101526040601f19601f8301168501019250505092915050565b80356001600160a01b0381168114610ad457600080fd5b919050565b60008060408385031215610aec57600080fd5b610af583610abd565b946020939093013593505050565b600080600060608486031215610b1857600080fd5b610b2184610abd565b9250610b2f60208501610abd565b9150604084013590509250925092565b600060208284031215610b5157600080fd5b5035919050565b600060208284031215610b6a57600080fd5b610b7382610abd565b9392505050565b60008060408385031215610b8d57600080fd5b610b9683610abd565b9150610ba460208401610abd565b90509250929050565b600181811c90821680610bc157607f821691505b602082108103610be157634e487b7160e01b600052602260045260246000fd5b50919050565b8082018082111561039e57634e487b7160e01b600052601160045260246000fdfea2646970667358221220ecfa1d98ef9e02568dfad85bcc0c8c708c7f57502b4a1004523f4545c8388f5364736f6c63430008140033",
  "linkReferences": {},
  "deployedLinkReferences": {}
}