{
  "_format": "hh-sol-artifact-1",
  "contractName": "BiatecTokenMintable",
  "sourceName": "contracts/BiatecTokenMintable.sol",
  "abi": [
    {
      "inputs": [
        {
          "internalType": "string",
          "name": "name",
          "type": "string"
        },
        {
          "internalType": "string",
          "name": "symbol",
          "type": "string"
        },
        {
          "internalType": "uint8",
          "name": "decimals_",
          "type": "uint8"
        },
        {
          "internalType": "uint256",
          "name": "initialSupply",
          "type": "uint256"
        },
        {
          "internalType": "uint256",
          "name": "cap",
          "type": "uint256"
        },
        {
          "internalType": "address",
          "name": "initialSupplyReceiver",
          "type": "address"
        }
      ],
      "stateMutability": "nonpayable",
      "type": "constructor"
    },
    {
      "inputs": [
        {
          "internalType": "uint256",
          "name": "increasedSupply",
          "type": "uint256"
        },
        {
          "internalType": "uint256",
          "name": "cap",
          "type": "uint256"
        }
      ],
      "name": "ERC20ExceededCap",
      "type": "error"
    },
    {
      "inputs": [
        {
          "internalType": "address",
          "name": "spender",
          "type": "address"
        },
        {
          "internalType": "uint256",
          "name": "allowance",
          "type": "uint256"
        },
        {
          "internalType": "uint256",
          "name": "needed",
          "type": "uint256"
        }
      ],
      "name": "ERC20InsufficientAllowance",
      "type": "error"
    },
    {
      "inputs": [
        {
          "internalType": "address",
          "name": "sender",
          "type": "address"
        },
        {
          "internalType": "uint256",
          "name": "balance",
          "type": "uint256"
        },
        {
          "internalType": "uint256",
          "name": "needed",
          "type": "uint256"
        }
      ],
      "name": "ERC20InsufficientBalance",
      "type": "error"
    },
    {
      "inputs": [
        {
          "internalType": "address",
          "name": "approver",
          "type": "address"
        }
      ],
      "name": "ERC20InvalidApprover",
      "type": "error"
    },
    {
      "inputs": [
        {
          "internalType": "uint256",
          "name": "cap",
          "type": "uint256"
        }
      ],
      "name": "ERC20InvalidCap",
      "type": "error"
    },
    {
      "inputs": [
        {
          "internalType": "address",
          "name": "receiver",
          "type": "address"
        }
      ],
      "name": "ERC20InvalidReceiver",
      "type": "error"
    },
    {
      "inputs": [
        {
          "internalType": "address",
          "name": "sender",
          "type": "address"
        }
      ],
      "name": "ERC20InvalidSender",
      "type": "error"
    },
    {
      "inputs": [
        {
          "internalType": "address",
          "name": "spender",
          "type": "address"
        }
      ],
      "name": "ERC20InvalidSpender",
      "type": "error"
    },
    {
      "inputs": [],
      "name": "EnforcedPause",
      "type": "error"
    },
    {
      "inputs": [],
      "name": "ExpectedPause",
      "type": "error"
    },
    {
      "inputs": [
        {
          "internalType": "address",
          "name": "owner",
          "type": "address"
        }
      ],
      "name": "OwnableInvalidOwner",
      "type": "error"
    },
    {
      "inputs": [
        {
          "internalType": "address",
          "name": "account",
          "type": "address"
        }
      ],
      "name": "OwnableUnauthorizedAccount",
      "type": "error"
    },
    {
      "anonymous": false,
      "inputs": [
        {
          "indexed": true,
          "internalType": "address",
          "name": "owner",
          "type": "address"
        },
        {
          "indexed": true,
          "internalType": "address",
          "name": "spender",
          "type": "address"
        },
        {
          "indexed": false,
          "internalType": "uint256",
          "name": "value",
          "type": "uint256"
        }
      ],
      "name": "Approval",
      "type": "event"
    },
    {
      "anonymous": false,
      "inputs": [
        {
          "indexed": true,
          "internalType": "address",
          "name": "newMinter",
          "type": "address"
        }
      ],
      "name": "MinterAdded",
      "type": "event"
    },
    {
      "anonymous": false,
      "inputs": [
        {
          "indexed": true,
          "internalType": "address",
          "name": "removedMinter",
          "type": "address"
        }
      ],
      "name": "MinterRemoved",
      "type": "event"
    },
    {
      "anonymous": false,
      "inputs": [
        {
          "indexed": true,
          "internalType": "address",
          "name": "previousOwner",
          "type": "address"
        },
        {
          "indexed": true,
          "internalType": "address",
          "name": "newOwner",
          "type": "address"
        }
      ],
      "name": "OwnershipTransferred",
      "type": "event"
    },
    {
      "anonymous": false,
      "inputs": [
        {
          "indexed": false,
          "internalType": "address",
          "name": "account",
          "type": "address"
        }
      ],
      "name": "Paused",
      "type": "event"
    },
    {
      "anonymous": false,
      "inputs": [
        {
          "indexed": true,
          "internalType": "address",
          "name": "from",
          "type": "address"
        },
        {
          "indexed": true,
          "internalType": "address",
          "name": "to",
          "type": "address"
        },
        {
          "indexed": false,
          "internalType": "uint256",
          "name": "value",
          "type": "uint256"
        }
      ],
      "name": "Transfer",
      "type": "event"
    },
    {
      "anonymous": false,
      "inputs": [
        {
          "indexed": false,
          "internalType": "address",
          "name": "account",
          "type": "address"
        }
      ],
      "name": "Unpaused",
      "type": "event"
    },
    {
      "inputs": [
        {
          "internalType": "address",
          "name": "newMinter",
          "type": "address"
        }
      ],
      "name": "addMinter",
      "outputs": [],
      "stateMutability": "nonpayable",
      "type": "function"
    },
    {
      "inputs": [
        {
          "internalType": "address",
          "name": "owner",
          "type": "address"
        },
        {
          "internalType": "address",
          "name": "spender",
          "type": "address"
        }
      ],
      "name": "allowance",
      "outputs": [
        {
          "internalType": "uint256",
          "name": "",
          "type": "uint256"
        }
      ],
      "stateMutability": "view",
      "type": "function"
    },
    {
      "inputs": [
        {
          "internalType": "address",
          "name": "spender",
          "type": "address"
        },
        {
          "internalType": "uint256",
          "name": "value",
          "type": "uint256"
        }
      ],
      "name": "approve",
      "outputs": [
        {
          "internalType": "bool",
          "name": "",
          "type": "bool"
        }
      ],
      "stateMutability": "nonpayable",
      "type": "function"
    },
    {
      "inputs": [
        {
          "internalType": "address",
          "name": "account",
          "type": "address"
        }
      ],
      "name": "balanceOf",
      "outputs": [
        {
          "internalType": "uint256",
          "name": "",
          "type": "uint256"
        }
      ],
      "stateMutability": "view",
      "type": "function"
    },
    {
      "inputs": [
        {
          "internalType": "uint256",
          "name": "value",
          "type": "uint256"
        }
      ],
      "name": "burn",
      "outputs": [],
      "stateMutability": "nonpayable",
      "type": "function"
    },
    {
      "inputs": [
        {
          "internalType": "address",
          "name": "account",
          "type": "address"
        },
        {
          "internalType": "uint256",
          "name": "value",
          "type": "uint256"
        }
      ],
      "name": "burnFrom",
      "outputs": [],
      "stateMutability": "nonpayable",
      "type": "function"
    },
    {
      "inputs": [],
      "name": "cap",
      "outputs": [
        {
          "internalType": "uint256",
          "name": "",
          "type": "uint256"
        }
      ],
      "stateMutability": "view",
      "type": "function"
    },
    {
      "inputs": [],
      "name": "decimals",
      "outputs": [
        {
          "internalType": "uint8",
          "name": "",
          "type": "uint8"
        }
      ],
      "stateMutability": "view",
      "type": "function"
    },
    {
      "inputs": [
        {
          "internalType": "address[]",
          "name": "possibleMinters",
          "type": "address[]"
        }
      ],
      "name": "listMinters",
      "outputs": [
        {
          "internalType": "address[]",
          "name": "",
          "type": "address[]"
        }
      ],
      "stateMutability": "view",
      "type": "function"
    },
    {
      "inputs": [
        {
          "internalType": "address",
          "name": "to",
          "type": "address"
        },
        {
          "internalType": "uint256",
          "name": "amount",
          "type": "uint256"
        }
      ],
      "name": "mint",
      "outputs": [],
      "stateMutability": "nonpayable",
      "type": "function"
    },
    {
      "inputs": [
        {
          "internalType": "address",
          "name": "",
          "type": "address"
        }
      ],
      "name": "minters",
      "outputs": [
        {
          "internalType": "bool",
          "name": "",
          "type": "bool"
        }
      ],
      "stateMutability": "view",
      "type": "function"
    },
    {
      "inputs": [],
      "name": "name",
      "outputs": [
        {
          "internalType": "string",
          "name": "",
          "type": "string"
        }
      ],
      "stateMutability": "view",
      "type": "function"
    },
    {
      "inputs": [],
      "name": "owner",
      "outputs": [
        {
          "internalType": "address",
          "name": "",
          "type": "address"
        }
      ],
      "stateMutability": "view",
      "type": "function"
    },
    {
      "inputs": [],
      "name": "pause",
      "outputs": [],
      "stateMutability": "nonpayable",
      "type": "function"
    },
    {
      "inputs": [],
      "name": "paused",
      "outputs": [
        {
          "internalType": "bool",
          "name": "",
          "type": "bool"
        }
      ],
      "stateMutability": "view",
      "type": "function"
    },
    {
      "inputs": [
        {
          "internalType": "address",
          "name": "minterToRemove",
          "type": "address"
        }
      ],
      "name": "removeMinter",
      "outputs": [],
      "stateMutability": "nonpayable",
      "type": "function"
    },
    {
      "inputs": [],
      "name": "renounceOwnership",
      "outputs": [],
      "stateMutability": "nonpayable",
      "type": "function"
    },
    {
      "inputs": [],
      "name": "symbol",
      "outputs": [
        {
          "internalType": "string",
          "name": "",
          "type": "string"
        }
      ],
      "stateMutability": "view",
      "type": "function"
    },
    {
      "inputs": [],
      "name": "totalSupply",
      "outputs": [
        {
          "internalType": "uint256",
          "name": "",
          "type": "uint256"
        }
      ],
      "stateMutability": "view",
      "type": "function"
    },
    {
      "inputs": [
        {
          "internalType": "address",
          "name": "to",
          "type": "address"
        },
        {
          "internalType": "uint256",
          "name": "value",
          "type": "uint256"
        }
      ],
      "name": "transfer",
      "outputs": [
        {
          "internalType": "bool",
          "name": "",
          "type": "bool"
        }
      ],
      "stateMutability": "nonpayable",
      "type": "function"
    },
    {
      "inputs": [
        {
          "internalType": "address",
          "name": "from",
          "type": "address"
        },
        {
          "internalType": "address",
          "name": "to",
          "type": "address"
        },
        {
          "internalType": "uint256",
          "name": "value",
          "type": "uint256"
        }
      ],
      "name": "transferFrom",
      "outputs": [
        {
          "internalType": "bool",
          "name": "",
          "type": "bool"
        }
      ],
      "stateMutability": "nonpayable",
      "type": "function"
    },
    {
      "inputs": [
        {
          "internalType": "address",
          "name": "newOwner",
          "type": "address"
        }
      ],
      "name": "transferOwnership",
      "outputs": [],
      "stateMutability": "nonpayable",
      "type": "function"
    },
    {
      "inputs": [],
      "name": "unpause",
      "outputs": [],
      "stateMutability": "nonpayable",
      "type": "function"
    }
  ],
  "bytecode": "0x60a06040523480156200001157600080fd5b506040516200180538038062001805833981016040819052620000349162000487565b338287876003620000468382620005ce565b506004620000558282620005ce565b50505080600003620000825760405163392e1e2760e01b8152600060048201526024015b60405180910390fd5b6080526005805460ff191690556001600160a01b038116620000bb57604051631e4fbdf760e01b81526000600482015260240162000079565b620000c68162000137565b506005805460ff60a81b1916600160a81b60ff871602179055336000908152600660205260409020805460ff1916600117905582156200012b5760006001600160a01b038216156200011957816200011b565b335b905062000129818562000191565b505b505050505050620006c2565b600580546001600160a01b03838116610100818102610100600160a81b031985161790945560405193909204169182907f8be0079c531659141344cd1fd0a4f28419497f9722a3daafe3b4186f6b6457e090600090a35050565b6001600160a01b038216620001bd5760405163ec442f0560e01b81526000600482015260240162000079565b620001cb60008383620001cf565b5050565b620001d9620001eb565b620001e683838362000212565b505050565b60055460ff1615620002105760405163d93c066560e01b815260040160405180910390fd5b565b6200021c620001eb565b620001e6838383620002308383836200028f565b6001600160a01b038316620001e65760006200024b60805190565b905060006200025960025490565b905081811115620002885760405163279e7e1560e21b8152600481018290526024810183905260440162000079565b5050505050565b6001600160a01b038316620002be578060026000828254620002b291906200069a565b90915550620003329050565b6001600160a01b03831660009081526020819052604090205481811015620003135760405163391434e360e21b81526001600160a01b0385166004820152602481018290526044810183905260640162000079565b6001600160a01b03841660009081526020819052604090209082900390555b6001600160a01b03821662000350576002805482900390556200036f565b6001600160a01b03821660009081526020819052604090208054820190555b816001600160a01b0316836001600160a01b03167fddf252ad1be2c89b69c2b068fc378daa952ba7f163c4a11628f55a4df523b3ef83604051620003b591815260200190565b60405180910390a3505050565b634e487b7160e01b600052604160045260246000fd5b600082601f830112620003ea57600080fd5b81516001600160401b0380821115620004075762000407620003c2565b604051601f8301601f19908116603f01168101908282118183101715620004325762000432620003c2565b816040528381526020925086838588010111156200044f57600080fd5b600091505b8382101562000473578582018301518183018401529082019062000454565b600093810190920192909252949350505050565b60008060008060008060c08789031215620004a157600080fd5b86516001600160401b0380821115620004b957600080fd5b620004c78a838b01620003d8565b97506020890151915080821115620004de57600080fd5b50620004ed89828a01620003d8565b955050604087015160ff811681146200050557600080fd5b6060880151608089015160a08a015192965090945092506001600160a01b03811681146200053257600080fd5b809150509295509295509295565b600181811c908216806200055557607f821691505b6020821081036200057657634e487b7160e01b600052602260045260246000fd5b50919050565b601f821115620001e657600081815260208120601f850160051c81016020861015620005a55750805b601f850160051c820191505b81811015620005c657828155600101620005b1565b505050505050565b81516001600160401b03811115620005ea57620005ea620003c2565b6200060281620005fb845462000540565b846200057c565b602080601f8311600181146200063a5760008415620006215750858301515b600019600386901b1c1916600185901b178555620005c6565b600085815260208120601f198616915b828110156200066b578886015182559484019460019091019084016200064a565b50858210156200068a5787850151600019600388901b60f8161c191681555b5050505050600190811b01905550565b80820180821115620006bc57634e487b7160e01b600052601160045260246000fd5b92915050565b608051611120620006e5600039600081816101ee0152610cc601526111206000f3fe608060405234801561001057600080fd5b506004361061014d5760003560e01c806370a08231116100c3578063983b2d561161007c578063983b2d56146102c8578063a9059cbb146102db578063d4e64c54146102ee578063dd62ed3e1461030e578063f2fde38b14610347578063f46eccc41461035a57600080fd5b806370a082311461024b578063715018a61461027457806379cc67901461027c5780638456cb591461028f5780638da5cb5b1461029757806395d89b41146102c057600080fd5b8063313ce56711610115578063313ce567146101cd578063355274ea146101ec5780633f4ba83a1461021257806340c10f191461021a57806342966c681461022d5780635c975abb1461024057600080fd5b806306fdde0314610152578063095ea7b31461017057806318160ddd1461019357806323b872dd146101a55780633092afd5146101b8575b600080fd5b61015a61037d565b6040516101679190610e42565b60405180910390f35b61018361017e366004610eac565b61040f565b6040519015158152602001610167565b6002545b604051908152602001610167565b6101836101b3366004610ed6565b610429565b6101cb6101c6366004610f12565b61044d565b005b600554600160a81b900460ff1660405160ff9091168152602001610167565b7f0000000000000000000000000000000000000000000000000000000000000000610197565b6101cb6104fa565b6101cb610228366004610eac565b61050c565b6101cb61023b366004610f34565b6105ba565b60055460ff16610183565b610197610259366004610f12565b6001600160a01b031660009081526020819052604090205490565b6101cb6105c7565b6101cb61028a366004610eac565b6105d9565b6101cb6105ee565b60055461010090046001600160a01b03166040516001600160a01b039091168152602001610167565b61015a6105fe565b6101cb6102d6366004610f12565b61060d565b6101836102e9366004610eac565b610713565b6103016102fc366004610f4d565b610721565b6040516101679190610fc2565b61019761031c36600461100f565b6001600160a01b03918216600090815260016020908152604080832093909416825291909152205490565b6101cb610355366004610f12565b6108b9565b610183610368366004610f12565b60066020526000908152604090205460ff1681565b60606003805461038c90611042565b80601f01602080910402602001604051908101604052809291908181526020018280546103b890611042565b80156104055780601f106103da57610100808354040283529160200191610405565b820191906000526020600020905b8154815290600101906020018083116103e857829003601f168201915b5050505050905090565b60003361041d8185856108f4565b60019150505b92915050565b600033610437858285610906565b610442858585610984565b506001949350505050565b6104556109e3565b6001600160a01b03811660009081526006602052604090205460ff166104b15760405162461bcd60e51b815260206004820152600c60248201526b2737ba10309036b4b73a32b960a11b60448201526064015b60405180910390fd5b6001600160a01b038116600081815260066020526040808220805460ff19169055517fe94479a9f7e1952cc78f2d6baab678adc1b772d936c6583def489e524cb666929190a250565b6105026109e3565b61050a610a16565b565b3360009081526006602052604090205460ff168061054b575060055461010090046001600160a01b03166001600160a01b0316336001600160a01b0316145b6105ac5760405162461bcd60e51b815260206004820152602c60248201527f4f6e6c79206d696e746572206f72206f776e65722063616e20706572666f726d60448201526b103a3434b99030b1ba34b7b760a11b60648201526084016104a8565b6105b68282610a68565b5050565b6105c43382610a9e565b50565b6105cf6109e3565b61050a6000610ad4565b6105e4823383610906565b6105b68282610a9e565b6105f66109e3565b61050a610b2e565b60606004805461038c90611042565b6106156109e3565b6001600160a01b03811661066b5760405162461bcd60e51b815260206004820152601d60248201527f4d696e7465722063616e6e6f74206265207a65726f206164647265737300000060448201526064016104a8565b6001600160a01b03811660009081526006602052604090205460ff16156106c75760405162461bcd60e51b815260206004820152601060248201526f20b63932b0b23c90309036b4b73a32b960811b60448201526064016104a8565b6001600160a01b038116600081815260066020526040808220805460ff19166001179055517f6ae172837ea30b801fbfcdd4108aa1d5bf8ff775444fd70256b44e6bf3dfc3f69190a250565b60003361041d818585610984565b60606000805b8381101561079c57600660008686848181106107455761074561107c565b905060200201602081019061075a9190610f12565b6001600160a01b0316815260208101919091526040016000205460ff161561078a5781610786816110a8565b9250505b80610794816110a8565b915050610727565b5060008167ffffffffffffffff8111156107b8576107b86110c1565b6040519080825280602002602001820160405280156107e1578160200160208202803683370190505b5090506000805b858110156108ae57600660008888848181106108065761080661107c565b905060200201602081019061081b9190610f12565b6001600160a01b0316815260208101919091526040016000205460ff161561089c5786868281811061084f5761084f61107c565b90506020020160208101906108649190610f12565b8383815181106108765761087661107c565b6001600160a01b039092166020928302919091019091015281610898816110a8565b9250505b806108a6816110a8565b9150506107e8565b509095945050505050565b6108c16109e3565b6001600160a01b0381166108eb57604051631e4fbdf760e01b8152600060048201526024016104a8565b6105c481610ad4565b6109018383836001610b6b565b505050565b6001600160a01b03838116600090815260016020908152604080832093861683529290522054600019811461097e578181101561096f57604051637dc7a0d960e11b81526001600160a01b038416600482015260248101829052604481018390526064016104a8565b61097e84848484036000610b6b565b50505050565b6001600160a01b0383166109ae57604051634b637e8f60e11b8152600060048201526024016104a8565b6001600160a01b0382166109d85760405163ec442f0560e01b8152600060048201526024016104a8565b610901838383610c40565b6005546001600160a01b0361010090910416331461050a5760405163118cdaa760e01b81523360048201526024016104a8565b610a1e610c53565b6005805460ff191690557f5db9ee0a495bf2e6ff9c91a7834c1ba4fdd244a5e8aa4e537bd38aeae4b073aa335b6040516001600160a01b03909116815260200160405180910390a1565b6001600160a01b038216610a925760405163ec442f0560e01b8152600060048201526024016104a8565b6105b660008383610c40565b6001600160a01b038216610ac857604051634b637e8f60e11b8152600060048201526024016104a8565b6105b682600083610c40565b600580546001600160a01b03838116610100818102610100600160a81b031985161790945560405193909204169182907f8be0079c531659141344cd1fd0a4f28419497f9722a3daafe3b4186f6b6457e090600090a35050565b610b36610c76565b6005805460ff191660011790557f62e78cea01bee320cd4e420270b5ea74000d11b0c9f74754ebdbfc544b05a258610a4b3390565b6001600160a01b038416610b955760405163e602df0560e01b8152600060048201526024016104a8565b6001600160a01b038316610bbf57604051634a1406b160e11b8152600060048201526024016104a8565b6001600160a01b038085166000908152600160209081526040808320938716835292905220829055801561097e57826001600160a01b0316846001600160a01b03167f8c5be1e5ebec7d5bd14f71427d1e84f3dd0314c0f7b2291e5b200ac8c7c3b92584604051610c3291815260200190565b60405180910390a350505050565b610c48610c76565b610901838383610c9a565b60055460ff1661050a57604051638dfc202b60e01b815260040160405180910390fd5b60055460ff161561050a5760405163d93c066560e01b815260040160405180910390fd5b610ca2610c76565b610901838383610cb3838383610d18565b6001600160a01b038316610901576002547f00000000000000000000000000000000000000000000000000000000000000009081811115610d115760405163279e7e1560e21b815260048101829052602481018390526044016104a8565b5050505050565b6001600160a01b038316610d43578060026000828254610d3891906110d7565b90915550610db59050565b6001600160a01b03831660009081526020819052604090205481811015610d965760405163391434e360e21b81526001600160a01b038516600482015260248101829052604481018390526064016104a8565b6001600160a01b03841660009081526020819052604090209082900390555b6001600160a01b038216610dd157600280548290039055610df0565b6001600160a01b03821660009081526020819052604090208054820190555b816001600160a01b0316836001600160a01b03167fddf252ad1be2c89b69c2b068fc378daa952ba7f163c4a11628f55a4df523b3ef83604051610e3591815260200190565b60405180910390a3505050565b600060208083528351808285015260005b81811015610e6f57858101830151858201604001528201610e53565b506000604082860101526040601f19601f8301168501019250505092915050565b80356001600160a01b0381168114610ea757600080fd5b919050565b60008060408385031215610ebf57600080fd5b610ec883610e90565b946020939093013593505050565b600080600060608486031215610eeb57600080fd5b610ef484610e90565b9250610f0260208501610e90565b9150604084013590509250925092565b600060208284031215610f2457600080fd5b610f2d82610e90565b9392505050565b600060208284031215610f4657600080fd5b5035919050565b60008060208385031215610f6057600080fd5b823567ffffffffffffffff80821115610f7857600080fd5b818501915085601f830112610f8c57600080fd5b813581811115610f9b57600080fd5b8660208260051b8501011115610fb057600080fd5b60209290920196919550909350505050565b6020808252825182820181905260009190848201906040850190845b818110156110035783516001600160a01b031683529284019291840191600101610fde565b50909695505050505050565b6000806040838503121561102257600080fd5b61102b83610e90565b915061103960208401610e90565b90509250929050565b600181811c9082168061105657607f821691505b60208210810361107657634e487b7160e01b600052602260045260246000fd5b50919050565b634e487b7160e01b600052603260045260246000fd5b634e487b7160e01b600052601160045260246000fd5b6000600182016110ba576110ba611092565b5060010190565b634e487b7160e01b600052604160045260246000fd5b808201808211156104235761042361109256fea264697066735822122041f369991b86a1af7b372a7bdba5e05ff4c867e63c4e9b0a1c6675cd250a07af64736f6c63430008140033",
  "linkReferences": {},
  "deployedLinkReferences": {}
}